:020000040800F2
:10000000701000204901000865190008C517000894
:10001000D1180008E30D0008F724000800000000D4
:10002000000000000000000000000000B11B0008FC
:10003000C90F000800000000ED190008C51C0008E9
:100040006301000863010008630100086301000800
:1000500063010008630100086301000863010008F0
:1000600063010008630100086301000863010008E0
:1000700063010008630100086301000863010008D0
:1000800063010008630100086301000863010008C0
:1000900063010008630100086301000863010008B0
:1000A00063010008630100086301000863010008A0
:1000B0006301000863010008630100086301000890
:1000C0006301000863010008630100086301000880
:1000D000630100089D1F00086301000889210008D2
:1000E0006301000863010008630100086301000860
:1000F0006301000863010008630100086301000850
:10010000630100086301000863010008630100083F
:10011000630100086301000863010008630100082F
:10012000630100086301000863010008630100081F
:10013000DFF810D000F014FC004800473934000804
:10014000AFF3008070100020064880470648004743
:10015000FEE7FEE7FEE7FEE7FEE7FEE7FEE7FEE777
:10016000FEE7FEE7051D00083101000840EA010333
:100170009B0703D009E008C9121F08C0042AFAD25D
:1001800003E011F8013B00F8013B521EF9D2704721
:10019000D2B201E000F8012B491EFBD270470022C9
:1001A000F6E710B513460A4604461946FFF7F0FF76
:1001B000204610BD30B505462A460B4612F8010B05
:1001C00013F8014B08B1A042F8D01CB1002802D0AE
:1001D0006D1CF1E7284630BDCAB2401E10F8011F61
:1001E0008A4202D00029F9D100207047421C10F841
:1001F000011B0029FBD1801A704710B5002200E0D6
:10020000521C835C8C5CA34201D1002BF8D1D8B284
:10021000E1B2401A10BD30B505460020034600E0AB
:100220005B1C934205D2EC5CC85C201A01D1002C07
:10023000F6D130BD0FB400B58DB010A909900B9068
:1002400000914FF0FF300A9000200C900548069076
:10025000054807906A4609A80F9900F057FA0DB0B3
:100260005DF814FB29070008470700082DE9FF5F28
:10027000D2E901A74FF00008916999461446DDF8CC
:1002800038B0464601988847054659EA0B0005D024
:1002900009E0A169761C019888470546216A28462D
:1002A00088470028F5D1681C03D05FEACA7005D0E2
:1002B00015E04FF0FF3004B0BDE8F09F2068011D4D
:1002C0002160D0F800800AE05FEACA7001D108F826
:1002D000015BA169761C7F1E019888470546002FA7
:1002E0001ADD681C18D0B9F1000F0DD0E81705EB26
:1002F000D060421120F01F0059F822102A1A012064
:1003000090400142E0D107E0BBF1000FDCD1216A4F
:10031000284688470028D7D0E16901988847BBF173
:10032000000F07D1002E05DD5FEACA7002D100215F
:1003300088F80010A068B84203DDBBF1000F03D0BD
:1003400017B16FF00100B6E73046B4E72DE9FE4F74
:10035000804681EA0300C00F0C46009021F0004166
:1003600023F00045B8EB0200A94105D240462146E2
:1003700090461C460B46024623F00040104347D0EF
:10038000270DC7F30A00C3F30A510290401A0190E7
:1003900040286BDAC3F3130040F4801B00989246A8
:1003A00020B10023D2EB030A63EB0B0B01985946F3
:1003B000C0F14002504600F072F906460D46504624
:1003C0005946019A00F08AF910EB080061410024B7
:1003D00087EA115284EAE7731A4340D0009A62B365
:1003E000019A012A4FEA075215DC001B61EB02015A
:1003F0004FF0004202EA0752CDE90042001C41F5ED
:10040000801132462B4600F0BEF903B0BDE8F08FF4
:1004100040462146F9E7001B61EB0201001C41F553
:10042000801300185B412018A2F5001747EB030169
:1004300040EAD570B6196D4111E06D084FEA3606F5
:1004400045EAC0754FEA0752001B61EB0201001C30
:1004500041F5801149084FEA3000001951413246F8
:100460002B4603B0BDE8F04F00F07EB900980122A2
:1004700040000023D0EB020263EBE07300982146BA
:100480004FEAE074B8EB000061EB0401E9E783F0A8
:1004900000435BE781F0004158E72DE9FE4F81EA18
:1004A000030404F0004421F0004100944FF0000BDD
:1004B00023F0004350EA01045ED052EA03045BD00B
:1004C000C3F30A54C1F30A552C44A4F2F334019443
:1004D000A0FB0254C1F3130141F48011C3F31303D1
:1004E00043F4801301FB024400FB034E840A970A85
:1004F00044EA815447EA8357A4FB076802958D0AB2
:1005000005FB07854FEA932C04FB0C542705029D3D
:100510004FEA065847EA1637B5EB08056EEB070CAD
:10052000870E920E47EA811742EA8312A7FB020167
:10053000B6EB0B0164EB00042B0D43EA0C335E18A1
:1005400044EB1C50DA465146E7FB0201C5F31304A5
:100550004FEA0B3343EA14534FEA0432019C43EA57
:100560000603A4F10C040294009CCDE900B400F051
:100570000AF903B0BDE8F08F00200146F9E70EB597
:10058000C10F80EAE0700844CA07002140F23343FB
:100590008DE80E000A460B4600F0F5F803B000BDEA
:1005A00070B5C1F30A5201F000450024C1F31301F4
:1005B00040F2FF3341F480119A4201DA002070BD0D
:1005C00040F233439A42A2F2334203DC524200F03B
:1005D00075F800E090402C43F1D0404270BD00001F
:1005E00030B5041E71F1000404DB4FF000444042BA
:1005F00064EB0101141E73F1000405DB1C464FF08F
:100600000043524263EB0403994208BF904230BD5D
:1006100030B50B46014600202022012409E021FAD2
:1006200002F59D4205D303FA02F5491B04FA02F5CF
:100630002844151EA2F10102F1DC30BD2DE9F05F66
:100640000546002092469B46884606468146402441
:100650001BE0284641464746224600F02FF8534605
:100660005A46C01A914110D311461846224600F04E
:1006700016F82D1A67EB01084F462246012000218B
:1006800000F00DF817EB00094E41201EA4F1010403
:10069000DFDC484631462A464346BDE8F09F202A23
:1006A00004DB203A00FA02F1002070479140C2F1C9
:1006B000200320FA03F3194390407047202A04DBFB
:1006C000203A21FA02F00021704721FA02F3D040CB
:1006D000C2F120029140084319467047202A06DBE8
:1006E000CB17203A41FA02F043EAE07306E041FA00
:1006F00002F3D040C2F120029140084319467047EE
:10070000026811441378016018467047D1600449AB
:1007100051610449116200211161114600F038B99C
:100720000107000885090008426842B1016811F814
:10073000013B23B1521EC0E9001218467047012147
:10074000C160881E704742685AB1C368016843B9E6
:1007500083688B4205D0491E521CC0E9001200205C
:1007600070474FF0FF30704710B5141E73F100044E
:1007700008DA401C41F1000192185B411A4301D193
:1007800020F0010010BD2DE9F04D92469B4611B1BD
:10079000B1FA81F202E0B0FA80F220329046FFF71F
:1007A0007EFF04460F4640EA0A0041EA0B01534629
:1007B0005A46084313D0114653EA010019D0C8F134
:1007C00040025046FFF77AFF05460E46504659460E
:1007D0004246FFF764FF084305D0012004E02046AD
:1007E0003946BDE8F08D0020054346EAE0762C430B
:1007F00037430A986305E40AA0EB08000022FD0ACB
:1008000044EA47540A3002D500200146E9E70105D1
:1008100010196941DDE9084500196941BDE8F04D4D
:10082000A2E72DE9F04D81EA030404F0004B21F02A
:10083000004514464FF0000A23F0004150EA05023B
:1008400020D054EA01021DD0C5F30A570246C5F371
:100850001303C1F31300C1F30A5640F4801543F4A7
:100860008013A7EB0608101BD64608F2FD3873EB81
:10087000050002D308F1010801E092185B41B8F1CC
:10088000000F03DA00200146BDE8F08D00204FF490
:100890008011064684460EE0171B73EB050705D34F
:1008A000121B63EB050306434CEA010C49084FEAAF
:1008B000300092185B4150EA0107EDD152EA030083
:1008C00012D082EA040083EA0501084305D0101B18
:1008D000AB4106D20122002306E000224FF0004384
:1008E00002E06FF0010253101AEB06004CEB0851C6
:1008F00010EB0A0041EB0B01BDE8F04DFFF734BFF0
:1009000070B521F0004303430CD0C1F30A55002415
:10091000D5EB040564EB0403D617AD1AB34102DB33
:100920000020014670BD201841EB025170BDC1F39B
:100930000A52C1F3130140F2FF3341F480119A428D
:1009400002DA00200146704740F233439A42A2F295
:10095000334202DC5242FFF7B1BEFFF7A0BE0000F7
:10096000064C074D06E0E06840F0010394E80700FC
:1009700098471034AC42F6D3FFF7DEFB6C4A000810
:100980008C4A0008C0B24FF4F05100F0EBB90000FF
:100990002DE9F34F8BB04FF0000801F10C000C462D
:1009A0004FF0010B46460DF1080A019062690121E2
:1009B00001989047051E2DD0252D2CD0216A8847FF
:1009C000C0B16269012101989047216A88470028D7
:1009D000F7D1411E62690198904700E0761CA16939
:1009E0000B988847216A88470028F7D1E1690B985E
:1009F0008847DBE7A1690B9888470746A84201D1E1
:100A0000761CD3E7E1690B9888477F1C02D1B8F1C7
:100A1000000F6FD047E1002762693D4639460198D3
:100A200090472A2804D16269012101989047012545
:100A3000DFF888926269012101989047A0F13001A6
:100A40000A290AD24F45E5DC07EB870100EB410795
:100A5000303FDFD445F01005ECE7E90601D46FF034
:100A600000476C280AD04C2814D0682815D06A2872
:100A70000DD074281CD07A281AD01DE0626901219B
:100A8000019890476C2802D045F0040514E045F029
:100A900002050DE045F020050AE062690121019898
:100AA0009047682802D045F0080505E045F4006548
:100AB0006269012101989047C4E9015765283DD03A
:100AC00019DC58287AD00CDC452837D004DC2528DE
:100AD00026D0412831D131E046282FD047282CD1CB
:100AE0002CE05B2877D0612828D063287CD064284C
:100AF00023D15AE0D1E06F2848D008DC66281DD009
:100B000067281BD0692821D06E2816D127E07028CD
:100B100045D0732868D0752847D078280DD14DE08E
:100B2000A1690B988847054625283FF469AFE1691C
:100B30000B9888476D1C3FF46AAFB4E023466A46C1
:100B40006FF001000B99AFF300809FE045F040008B
:100B50006060A80723464FF0000236D43EE0E80765
:100B60007FF447AF2068011D21600068290501D589
:100B700006701BE7290701D5068017E7A90703D5EB
:100B8000F117C0E9006111E706600FE745F040008A
:100B90006060A80723464FF0080216D41EE040F616
:100BA0000E0125EA0100606016E045F0400060603B
:100BB000A80723464FF00A0207D40FE045F0400093
:100BC0006060A80708D5234610226FF001000B993A
:100BD000AFF300805AE007E0234610226FF00100D7
:100BE0000B99AFF3008051E04FF000094F464B46A0
:100BF000632802D05B2807D041E02079C00601D4E9
:100C00000120A06001273AE0626901210198904724
:100C10005E2805D14FF00109626949460198904765
:100C2000216939B900210A46534643F82120491C5D
:100C30000829FADBB0B3216969B9C11700EBD162A9
:100C400053110AEB830122F01F02821A01200B6864
:100C5000904003430B6062690121019890475D2831
:100C6000E8D1B9F1000F09D00020514651F82020F9
:100C7000D24341F82020401C0828F7DB02AB224673
:100C800000976FF001000B99FFF7F0FA00280CDADB
:100C9000401C08D1BBF1000F05D04FF0FF300DB064
:100CA000BDE8F08FFFE74046F9E7E90701D108F119
:100CB000010806444FF0000B78E60000CCCCCC0CC9
:100CC0002DE9F04D00231A461B1A8A4103DB002050
:100CD0000146BDE8F08DC1F30A52C1F3130141F49E
:100CE00080154FF0000BD10702D100186D41521E44
:100CF0000027044640F2FF11384601EB620A3E46E7
:100D00008046024600204FF48011FFF7D7FCC2193D
:100D10007141BB1846EB0100B4EB030C75EB000C02
:100D200004D3E41A65EB000517460E46241908F1B2
:100D300001006D4180463428E3DDF91946EB0600D9
:100D4000091BA84103D24FF0FF32134601E00022F5
:100D500013461BEB070046EB0A51BDE8F04DFFF7C9
:100D600003BD00007F2801D9002208E0064A02EBFB
:100D70005002C007127800D1120902F00F020120C0
:100D80009040084070470000204A000870B58C1859
:100D900010F8015B15F0070301D110F8013B2A118F
:100DA00006D110F8012B03E010F8016B01F8016B7C
:100DB0005B1EF9D12B0705D40023521E0DD401F878
:100DC000013BFAE710F8013BCB1A921C03E013F841
:100DD000015B01F8015B521EF9D5A142D8D3002076
:100DE00070BD00BFFEE7000010B54FF480610448FD
:100DF000FFF7D5F900200249A1F8000410BD00005A
:100E00006806002010B5002400F024F804E0601CFF
:100E1000C4B2012002F07EFA0D48006808B1642CCB
:100E2000F5DB642C01DB012010BD002404E0601C14
:100E3000C4B2012002F06EFA0548006808B9642CBB
:100E4000F5DB642C01DB0120EEE70020ECE700007D
:100E50002C01244208B54FF40060ADF80000482092
:100E60008DF803006946024800F0A4FB08BD0000AD
:100E70000020014008B54FF40060ADF800001020DC
:100E80008DF8030003208DF802006946014800F048
:100E900091FB08BD0020014008B50121080200F0C7
:100EA0000DFE4FF40060ADF8000010208DF8030037
:100EB00003208DF802006946064800F07BFB4FF4E2
:100EC0000061044800F04CFC00F068F8FFF79AFF5E
:100ED00008BD00000020014010B5002404E0601CA3
:100EE000C4B2012002F016FA0D48006808B1642C63
:100EF000F5DB002404E0601CC4B2012002F00AFA11
:100F00000748006808B9642CF5DB282002F002FAD3
:100F10000348006808B1012010BD0020FCE7000074
:100F20002C01244270B50024002506E06006040E62
:100F3000FFF7D2FF0443681CC5B2082DF6DB20463C
:100F400070BD7CB505460E4600F028F8FFF75AFF45
:100F5000F8B9002405E0FFF7E5FF0DF80400601C78
:100F6000C4B2052CF7DB9DF800009DF80110084481
:100F70009DF8021008449DF8031008449DF80410E1
:100F8000884208D19DF8000030709DF8020028705A
:100F900001E001207CBD0020FCE7000010B5FFF758
:100FA00069FF002006490860142002F071F9012051
:100FB0000449C1F8AC011E2002F0ACF910BD0000DC
:100FC000AC012442000024427047000010B54FF4E9
:100FD0000041094800F0C4FB4FF47A7002F058F960
:100FE00001E000F03FF9C823002204A104A000F0B2
:100FF00019F80028F5D010BD000801404F4B000043
:101000004154000010B50446012C04D110210448BD
:1010100000F0A6FB03E01021014800F09FFB10BD8B
:10102000000801402DE9F04106460C4615461F46D2
:10103000FFF7DAFE324621A1224801F0E3F81CB99D
:1010400015B90120BDE8F081B8B202F021F9002005
:101050001D49B1F80014C1F30E011B4A505411464A
:101060001AA001F0CDFAB4B1ADB121461648FFF790
:10107000A1F808B1012000E0002040B9294612483B
:10108000FFF798F808B1012000E0002008B1012026
:10109000D8E70020D6E744B121460B48FFF78AF88D
:1010A00008B10120CEE70020CCE729460648FFF72B
:1010B00081F808B10120C5E70020C3E725730D0AB8
:1010C0000000000000480040680600202573000072
:1010D00030B59FB004460D462B46224606A101A816
:1010E00001F09EFA41F65833002208A101A8FFF74B
:1010F00099FF1FB030BD000041542B43574A415067
:101100003D222573222C2225732200004F4B000024
:1011100070B5B8B004460D46164664211FA8FFF707
:101120003EF82B46224609A11FA801F079FA1FAA12
:1011300008A101A801F074FA4FF4FA730AA20EA1F3
:1011400001A8FFF76FFF38B070BD000022257322A1
:101150002C25730041542B4D515454434F4E4E3D5A
:10116000302C25732C300000414C5245415920430E
:101170004F4E4E45435400004F4B000070B5B8B081
:1011800004460D46164664211FA8FFF708F82B46B3
:10119000224607A101A8009601F042FA4FF4FA7323
:1011A0000DA211A101A8FFF73DFF38B070BD0000EE
:1011B00041542B4D5154545055423D302C222573EF
:1011C000222C227B5C2225735C223A5C2225735CF4
:1011D000227D222C312C3000414C52454159204374
:1011E0004F4E4E45435400004F4B000010B504468F
:1011F00024B1012C0AD0022C18D10FE040F6C41300
:101200000BA20EA10EA0FFF70DFF10BD40F6C413F8
:1012100007A20AA10DA0FFF705FFF6E740F6C413E9
:1012200003A206A10CA0FFF7FDFEEEE70020ECE70D
:101230006E6F206368616E67650000004F4B0000B1
:1012400041542B43574D4F44453D310041542B43AE
:10125000574D4F44453D320041542B43574D4F4469
:10126000453D330010B54FF40041064800F076FAD2
:101270004FF4FA7002F00CF84FF40041014800F00E
:101280006FFA10BD000801402DE9F04F89B03BA76F
:101290000FF2EC0B3DA0089040A007900024A04660
:1012A0000025A1460026A246002006900590049045
:1012B00003903CA002903EA0006801903DA001F088
:1012C0009FF90120FFF79EFEFFF780FE394640A000
:1012D00001F096F90020FFF789FF11E059463846E2
:1012E000FFF7F6FE8046B8F1000F09D1611C40A05F
:1012F00001F086F9601CC4B24FF47A7001F0C8FFA7
:10130000032C02DAB8F1000FE8D045A001F078F91B
:101310000FE000F013F98246BAF1000F09D1711CF9
:1013200046A001F06DF9701CC6B24FF47A7001F05E
:10133000AFFF032E02DABAF1000FEAD04BA001F0A2
:101340005FF912E00922DDE90710FFF7E1FE8146AF
:10135000B9F1000F09D1691C4DA001F051F9681CC9
:10136000C5B24FF47A7001F093FF032D02DAB9F1A0
:10137000000FE7D009B0BDE8F08F00006D61690093
:101380003132333435363738000000003139322EEF
:101390003136382E31382E353700000031383833A9
:1013A00000000000746F7069633931310000000083
:1013B000300000000D0A496E697469616C697A69D0
:1013C0006E6720455350383236362E2E2E0D0A00C9
:1013D0000D0A436F6E6E656374696E6720746F20CB
:1013E000576946693A2025732E2E2E0D0A000000FB
:1013F0000D0A5769466920636F6E6E656374696F85
:101400006E206661696C65642C20726574727969FE
:101410006E672025642F332E2E2E0D0A000000004B
:101420000D0A53657474696E67204D5154542075CC
:101430007365722E2E2E0D0A000000000D0A5365F2
:101440007474696E67204D51545420757365722011
:101450006661696C65642C207265747279696E6767
:101460002025642F332E2E2E0D0A00000D0A436F07
:101470006E6E656374696E6720746F204D515454AD
:10148000207365727665722E2E2E0D0A0000000004
:101490000D0A4D5154542073657276657220636F46
:1014A0006E6E656374696F6E206661696C65642C2D
:1014B000207265747279696E672025642F332E2E31
:1014C0002E0D0A0030B5B7B004460D4664211EA8A3
:1014D000FEF765FE2B46224608A1684601F0A0F8FB
:1014E00069460CA001F08CF84FF4FA730EA212A119
:1014F0006846FFF797FD37B030BD000041542B4DD3
:101500005154545355423D302C222573222C2573BF
:101510000000000073656E642073756220636D6463
:101520003A2025730D0A0000414C52454159204391
:101530004F4E4E45435400004F4B000000B5B7B02E
:1015400064211EA8FEF72BFE06A1684601F068F88C
:101550004FF4FA7312A216A16846FFF763FD37B085
:1015600000BD000041542B4D515454555345524336
:1015700046473D302C312C22746573745573657267
:1015800034303032222C2261646D696E222C22317B
:1015900032333435363738222C302C302C2222008E
:1015A000414C5245415920434F4E4E454354000053
:1015B0004F4B00002DE9F041024600250026002097
:1015C00000230024002791F803C00CF00F0591F8C8
:1015D00003C00CF0100CBCF1000F03D091F802C056
:1015E0004CEA050591F800C0BCF1000F31D0146839
:1015F00000202BE04FF0010C0CFA00F3B1F800C012
:101600000CEA03069E4220D183004FF00F0C0CFA27
:1016100003F7BC4305FA03FC4CEA040491F803C049
:10162000BCF1280F06D14FF0010C0CFA00FCC2F8F7
:1016300014C00AE091F803C0BCF1480F05D14FF087
:10164000010C0CFA00FCC2F810C0401C0828D1D3D1
:101650001460B1F800C0BCF1FF0F34DD5468002005
:101660002EE000F1080C4FF0010808FA0CF3B1F875
:1016700000C00CEA03069E4221D183004FF00F0CFC
:101680000CFA03F7BC4305FA03FC4CEA040491F896
:1016900003C0BCF1280F05D100F1080C08FA0CF8C2
:1016A000C2F8148091F803C0BCF1480F07D100F1D3
:1016B000080C4FF0010808FA0CF8C2F81080401C22
:1016C0000828CED35460BDE8F0810000F0B50A468A
:1016D000002300240021002500F00046B6F1004F51
:1016E00002D11D4EF16901E01B4E7168C0F3034544
:1016F00083B200F44016B6F5401F08D121F07061A6
:10170000154E766826F07066134F7E6012E000F486
:101710008016B6F5801F06D1032606FA05F4A1430C
:1017200041F0706106E0460D360103FA06F6B1435A
:1017300041F0706122B1460D360103FA06F63143DD
:1017400000F00046B6F1004F02D1034EF16101E016
:10175000014E7160F0BD0000000001404161704722
:101760000161704770B504460D46164607A000F0AB
:1017700047FF21460CA000F043FF29460DA000F0D2
:101780003FFF284602F0D4F870BD00005265636543
:1017900069766564204D515454206D65737361679B
:1017A000653A0D0A00000000546F7069633A202505
:1017B000730D0A004D6573736167653A2025730DDB
:1017C0000A0D0A0000BFFEE708B50121482000F01D
:1017D00075F92020ADF8000010208DF803000320DB
:1017E0008DF8020069460948FFF7E4FE202107480A
:1017F000FFF7B6FF2020ADF8000069460448FFF768
:10180000D9FE20210248FFF7ABFF08BD000C0140C4
:101810000018014010B520210348FFF7A1FF202147
:101820000248FFF79DFF10BD000C01400018014069
:1018300010B520210348FFF791FF20210248FFF750
:101840008DFF10BD000C01400018014010B504468A
:101850000DA12046FEF7D1FC28B9FFF7E9FF0BA048
:1018600000F0CEFE0EE00DA12046FEF7C6FC28B922
:10187000FFF7D0FF0AA000F0C3FE03E021460DA051
:1018800000F0BEFE10BD00006F6E00004C656420CD
:101890007475726E6564206F6E0D0A006F66660067
:1018A0004C6564207475726E6564206F66660D0AFF
:1018B00000000000496E76616C6964207374617485
:1018C0006520666F72204C45443A2025730D0A004E
:1018D00000BFFEE710B504460FA12046FEF78DFCC1
:1018E00040B94FF4C8710D4800F003FB0CA000F0A4
:1018F00087FE10E00EA12046FEF77FFC38B90021DC
:10190000064800F0F6FA0BA000F07AFE03E021464C
:101910000CA000F075FE10BD6F6E000000040040CA
:101920004D6F746F7220737461727465640D0A0078
:101930006F6666004D6F746F722073746F707065A0
:10194000640D0A00496E76616C6964207374617479
:101950006520666F72204D6F746F723A2025730D8B
:101960000A0000007047000070B5002100230F221C
:10197000C47804B3154C246804F4E064C4F5E0644E
:10198000210AC1F10403CA40447804FA03F18478BF
:101990001440214309010E4C0678A155047804F047
:1019A0001F050124AC4005786D11AD0005F1E0255F
:1019B000C5F8004109E0047804F01F050124AC409B
:1019C000044D0678761145F8264070BD0CED00E018
:1019D00000E400E080E100E002490143024A1160B6
:1019E000704700000000FA050CED00E070470000B1
:1019F0002DE9F041B0B00446884621461DA000F014
:101A0000FFFD20A12046FEF7D5FB00282FD02C217A
:101A10002046FEF7E1FB451C2C212846FEF7DCFBA7
:101A2000461C2C213046FEF7D7FB471C202128A856
:101A3000FEF7B5FB202120A8FEF7B1FB8021684608
:101A4000FEF7ADFB28AA13A12846FEF7F3FB20AA58
:101A500010A13046FEF7EEFB6A460EA13846FEF7AF
:101A6000E9FB20AA694628A8FFF77CFE00BF30B03A
:101A7000BDE8F0815B52415720444154415D20252F
:101A8000730D0A002B4D5154545355425245435641
:101A90003A000000255B5E2C5D00000029B1064A7B
:101AA000D2690243044BDA6104E0034AD2698243FB
:101AB000014BDA61704700000010024029B1064A6C
:101AC00092690243044B9A6104E0034A926982439B
:101AD000014B9A61704700000010024030B50021B0
:101AE0000022002400232D4D6D6805F00C0121B16A
:101AF000042905D0082923D105E0294D056022E0FD
:101B0000274D05601FE0254D6D6805F47012234DCB
:101B10006D6805F48034022505EB92421CB9214D15
:101B2000554305600BE01D4D6D6805F400351DB192
:101B30001C4D5543056002E0194D5543056002E018
:101B4000174D056000BF00BF144D6D6805F0F00132
:101B50000909154D6B5C0568DD4045600F4D6D68EA
:101B600005F4E061090A104D6B5C4568DD40856055
:101B70000A4D6D6805F46051C90A0B4D6B5C4568F0
:101B8000DD40C560054D6D6805F44041890B074D8A
:101B90006B5CC568B5FBF3F5056130BD0010024014
:101BA00000127A0000093D00680100207801002041
:101BB000704710B500F002F810BD00000CB5002011
:101BC000019000903348006840F48030314908604B
:101BD00000BF3048006800F4003000900198401CBD
:101BE0000190009818B90198B0F5A06FF1D129487B
:101BF000006800F4003010B10120009001E00020E6
:101C000000900098012843D12348006840F010005C
:101C1000214908600846006820F003000860084673
:101C2000006840F0020008601A484068194948609E
:101C30000846406848600846406840F48060486054
:101C40000846406820F47C1048600846406840F42C
:101C5000E81048600846006840F08070086000BFE7
:101C60000C48006800F000700028F9D0094840686E
:101C700020F00300074948600846406840F0020031
:101C8000486000BF0348406800F00C000828F9D104
:101C90000CBD00000010024000200240042808D1C2
:101CA0004FF0E021096941F004014FF0E022116199
:101CB00007E04FF0E021096921F004014FF0E02234
:101CC000116170477047000010B504466FF00400C2
:101CD000FFF7E4FFE11704EB5171C1F3C701074AB5
:101CE00011701046007800EB4001C1EBC0104FF6B8
:101CF000FF7101EAC0000249088010BD7C0100208C
:101D00007E01002010B51348006840F00100114921
:101D1000086008464068104908400E494860084677
:101D200000680E4908400B4908600846006820F426
:101D3000802008600846406820F4FE0048604FF4A8
:101D40001F008860FFF735FF4FF00060044908600E
:101D500010BD0000001002400000FFF8FFFFF6FE7B
:101D600008ED00E030B589B005460C460121082099
:101D7000FFF7A4FE01210220FFF790FE0121084693
:101D8000FFF79CFE2020ADF8040003208DF806002C
:101D900018208DF8070001A91748FFF70BFC012157
:101DA0001648FFF793FCADF81C50ADF81840002022
:101DB000ADF81E00ADF81A0006A9114800F09CF815
:101DC0006020ADF808000220ADF810000120ADF849
:101DD0000A0002A90A4800F02DF80821084800F07E
:101DE0007BF80121064800F00DF80121044800F0BD
:101DF00015F809B030BD0000000C014000081A00C1
:101E00000004004021B1028842F08002028004E018
:101E100002884FF67F731A400280704721B1028812
:101E200042F00102028004E002884FF6FE731A407D
:101E30000280704770B5002400220023058C4FF605
:101E4000EF7635400584028C8388048B48F6FF7555
:101E50002C404FF6FF452C400D884FF6FF7606EAE2
:101E600005252C434FF6DF752A400D8906EA051536
:101E70002A434D8806EA05152A43154DA84202D08B
:101E8000144DA8421DD14FF67F752A404D894FF65B
:101E9000FF7606EA05152A434FF6BF752A408D885E
:101EA00006EA05152A434FF6FF352B404FF2FF7522
:101EB0002B408D8906EA85052B43CD8906EA8505E9
:101EC0002B4383800483CD880587028470BD000086
:101ED000002C0140003401400A460021018B4FF2E2
:101EE000FF7319404FF6FF7303EA0223194301837E
:101EF0007047018770470000002202881D4B9842FE
:101F00000ED01D4B98420BD0B0F1804F08D01B4B28
:101F1000984205D01A4B984202D01A4B984204D1ED
:101F20004FF68F731A404B881A43174B984207D0CD
:101F3000164B984204D04FF6FF431A40CB881A4301
:101F400002808B8883850B8803850A4B98420BD0CF
:101F5000094B984208D00E4B984205D00D4B984241
:101F600002D00D4B984201D10B7A03860123838264
:101F700070470000002C0140003401400004004084
:101F800000080040000C0040001000400014004019
:101F90000040014000440140004801407FB547A394
:101FA0000FCB8DE80F0040F22551484800F0DEF9D4
:101FB000002874D0454800F095FAC5B2444800881E
:101FC00000F40040002872D14148008800F48040AD
:101FD000002849D00A2D03D000203D49088066E042
:101FE0003B48008840F40040394908800846008892
:101FF000C0F30D0600240DE000BF8021334800F03F
:10200000A8F90028F9D01DF80410304800F06FFA44
:10201000601C84B26846FEF7E9F8A042ECD800BF25
:1020200080212A4800F095F90028F9D0202127487E
:1020300000F05DFA00240DE000BF8021234800F08D
:1020400088F90028F9D02348015D204800F04FFAB4
:10205000601C84B2B442EFDB00201D490880C82117
:102060001C48FEF79CF822E00D2D06D11848008888
:1020700040F480401649088019E015480088C0F3F4
:102080000D00C8280CDA12480088C0F30D00114971
:102090000D540F480088401C0D49088007E00BE0F4
:1020A00000200B490880C8210A48FEF778F840F262
:1020B0002551064800F032F97FBD0000726573704B
:1020C0006F6E736520746578743A000000380140C3
:1020D00080010020A005002010B586B00446012133
:1020E0000420FFF7EBFC01218803FFF7E7FC4FF426
:1020F0000070ADF8140003208DF8160018208DF83C
:10210000170005A91E48FFF755FA4FF48060ADF897
:10211000140004208DF8170005A91948FFF74AFAA2
:1021200001940020ADF80800ADF80A00ADF80C00ED
:10213000ADF810000C20ADF80E0001A9114800F018
:1021400065F901210F4800F0F8F840210D4800F032
:10215000DCF8012240F225510A4800F031F925202F
:102160008DF8000003208DF801008DF80200012099
:102170008DF803006846FFF7F7FB06B010BD0000BE
:10218000000801400038014010B540F225511B48BD
:1021900000F0ECF8D8B1194800F0A4F9C4B218481E
:1021A000B0F80004C0F30E0040F2FF3188420EDAAE
:1021B0001349B1F80014C1F30E00411C104AB2F8E3
:1021C000002461F30E020E49A1F800240C5440F2E1
:1021D00024410A4800F0CAF801280DD10848B0F897
:1021E000000420F4004000F500400549A1F8000477
:1021F000024800F077F9C4B210BD0000004800406A
:10220000680600200FB470B586B006460CA8019091
:1022100073E00B9800785C281CD10B98401C0B9045
:1022200000786E2809D072280FD10D21304600F0B9
:102230005EF90B98401C0B900BE00A21304600F031
:1022400056F90B98401C0B9003E00B98401C0B9028
:1022500000BF4BE00B980078252840D10B98401C1C
:102260000B900078642818D0732833D1019810C8D7
:1022700001900BE02178304600F039F900BF802151
:10228000304600F066F80028F9D0641C2078002859
:10229000F0D10B98401C0B9020E0019820C80190D1
:1022A0000A2202A9284601F095F802AC0BE0217839
:1022B000304600F01CF900BF8021304600F049F89C
:1022C0000028F9D0641C20780028F0D10B98401C1D
:1022D0000B9003E00B98401C0B9000BF06E00B989E
:1022E00010F8011B0B90304600F001F900BF80216F
:1022F000304600F02EF80028F9D00B98007800281E
:1023000087D106B070BC5DF814FB01F40072B2F521
:10231000007F00D100BFCA430280704710B5002281
:10232000002340F66A14A14200D100BF0A12012422
:102330009440A3B2DC43048010BD21B1828942F4F1
:102340000052828104E082894DF6FF731A40828137
:10235000704702460020B1F5007F00D100BF13880E
:102360000B400BB1012000E00020704770B5024621
:10237000002400230025002040F66A16B14200D157
:1023800000BFC1F3421501F01F03012606FA03F353
:10239000012D02D19689334006E0022D02D1168A22
:1023A000334001E0968A33400C12012606FA04F409
:1023B0001688344013B10CB1012000E0002070BD3C
:1023C000F0B50346002400260025002040F66A17D9
:1023D000B94200D100BF1846C1F3421401F01F06F4
:1023E000012707FA06F5012C01D10C3004E0022C7C
:1023F00001D1103000E014301AB107682F43076094
:1024000002E00768AF430760F0BD00002DE9F04728
:1024100086B005460E460024A24600BFA14600270E
:10242000B08900B100BF2F462C8A4CF6FF700440E3
:10243000F08804432C82AC894EF6F3100440B08837
:1024400031890843718908430443AC81AC8A4FF653
:10245000FF400440B0890443AC8201A8FFF73EFB73
:102460001F48874202D1DDF810A001E0DDF80CA082
:10247000A88900F4004040B10AEBCA0000EB0A1042
:1024800031684900B0FBF1F807E00AEBCA0000EB45
:102490000A1031688900B0FBF1F86420B8FBF0F055
:1024A00004012009642101FB1089A88900F400407F
:1024B00040B1322000EBC900B0FBF1F000F00700A2
:1024C000044308E0322000EB09106421B0FBF1F076
:1024D00000F00F0004432C8106B0BDE8F087000037
:1024E0000038014001468888C0F308007047C1F3F6
:1024F00008028280704700BFFEE7000000B587B089
:1025000001218804FFF7CAFA01210820FFF7D6FA53
:1025100001210420FFF7D2FA01210846FFF7CEFA85
:1025200001213348FFF7D2F848F21000ADF8180047
:1025300010208DF81B0003208DF81A0006A92D48E5
:10254000FFF738F810212B48FFF708F94FF4004146
:102550002848FFF705F94FF48060ADF81800032014
:102560008DF81A0018208DF81B0006A92248FFF7E5
:1025700021F84FF40060ADF8180004208DF81B001E
:1025800006A91D48FFF716F84FF4E130029000202D
:10259000ADF80C00ADF80E00ADF81000ADF8140069
:1025A0000C20ADF8120002A91448FFF72FFF0122FA
:1025B00040F225511148FFF703FF012240F2244168
:1025C0000E48FFF7FDFE01210C48FFF7B6FE27205D
:1025D0008DF8040000208DF805008DF8060001201C
:1025E0008DF8070001A8FFF7BFF907B000BD000094
:1025F0000002300000080140000C0140004800408B
:102600000FB4054B10B503A9044A029800F07EF9F7
:1026100010BC5DF814FB000061330008900100203D
:102620000FB4084B10B504A902AA039800F06EF984
:10263000044602A9002000F0ECFC204610BC5DF826
:1026400014FB000013300008490050EAC12018BFF5
:1026500004204A0D18BF40F0010040F2FF72B2EBB7
:10266000515F08BF40F00200012808BF05207047F5
:102670002DE9F0414F1E00EBC7010446D1E90001EE
:1026800015461E4637F006020DD02A463346FDF7A2
:1026900004FF7F1E04EBC703D3E90023FDF756FEBA
:1026A00037F00602F1D1022F25D0042F13D0062FC8
:1026B00018BFBDE8F0812A463346FDF7EEFED4E9A7
:1026C0000A23FDF743FE2A463346FDF7E6FED4E92A
:1026D0000823FDF73BFE2A463346FDF7DEFED4E92C
:1026E0000623FDF733FE2A463346FDF7D6FED4E92E
:1026F0000423FDF72BFE2A463346FDF7CEFED4E930
:102700000223FDF723FE2A463346FDF7C6FED4E931
:102710000023BDE8F041FDF719BE0000002213467A
:1027200010460149FEF77DB80000F03FFDF70EBEF0
:102730000022134610461146FEF773B840F20132EC
:1027400000204FF0E041FEF7DBB80000024A002015
:102750001107FEF7D5B8000001FDFFFF02E008C831
:10276000121F08C1002AFAD170477047002001E00B
:1027700001C1121F002AFBD1704700000149086007
:10278000704700009C0100202DE9FF5F82B000210E
:10279000DDE90430020DDDF840B0034318D044F603
:1027A0001050A2F2FF3242431514119801281FD095
:1027B000A5EB0B00401C5FEA000A4FF000064E4FED
:1027C000DFF83891B046504615D5CAF1000413E041
:1027D000119801244AA3012801D16FEA0B01029844
:1027E000119AC0E90031C0E9024206B0BDE8F09F8D
:1027F000CBF10000DFE704460021404A491842EBD4
:102800000450CDE9001012E0E00707D032463B4605
:1028100040464946FDF741FE8046894632463B46E2
:1028200010461946FDF739FE06460F466410002C87
:10283000EAD1DDE90401DDE90023BAF1000F06DA8F
:10284000FDF72BFE42464B46FDF727FE05E0FDF760
:10285000E8FF42464B46FDF7E4FF04460E460022E1
:10286000284BFDF7BDFE03D84FF0FF30014607E0CF
:102870000022254B20463146FDF768FDFEF757F84C
:10288000102409E0002C0ADB0A220023FDF7D6FE03
:10289000039B30321A55641E50EA0102F2D1641CC7
:1028A000039AC4F111031444119A012A03D001229E
:1028B00008430DD10AE0084304D000204FF0110B6B
:1028C000119072E7A3EB0B056D1E0DE05B4504DD77
:1028D0004FF0000205F1010504E003DA4FF00002B9
:1028E000A5F10105002AECD002981199C0E9023146
:1028F000C0E9004579E70000000014400000F03F07
:10290000300000000000F0430000E03F2DE9FF4FE1
:1029100095B09A46884606460025EEE1252877D1EF
:1029200000242746F94A0121039400E0044316F8E5
:10293000013F203B01FA03F01042F7D130782A28FA
:1029400011D06FF02F033078A0F13002092A16D889
:10295000039A44F0020402EB820203EB42021044A9
:10296000761C0390EFE758F8042B0392002A03DA51
:10297000504244F40054039044F00204761C307832
:102980002E2816D116F8010F44F004042A280DD081
:102990006FF02F023078A0F13003092B09D807EB34
:1029A000870302EB4303C718761CF3E758F8047B50
:1029B000761C30786C280FD006DC4C2817D068289D
:1029C0000DD06A2814D104E0742810D07A280FD1D1
:1029D0000DE044F400140AE044F4801401E044F4EF
:1029E00040147278824202D104F58014761C761C61
:1029F000307866280BD013DC582877D009DC002803
:102A000075D04528F6D04628F4D047281AD193E14E
:102A100018E0632835D0642879D0652812D18BE17D
:102A2000702873D008DC6728F1D069286FD06E2831
:102A30000DD06F2806D1ACE073282CD0752874D047
:102A4000782853D05246179990476D1C54E1C4F32F
:102A50000250022809D003280DD0D8F8001004280D
:102A60000DD00D6008F1040846E1D8F80010EA170F
:102A7000C1E90052F6E7D8F800100D80F2E70D70BA
:102A8000F0E718F8041B8DF8001000208DF8010005
:102A9000EB46012003E058F804BB4FF0FF3061071C
:102AA0004FF0000102D40DE009F101018946B9425D
:102AB0000FDA8145F8DB1BF809100029F4D108E092
:102AC00009F1010189468142FADB1BF8091000294E
:102AD000F6D103985346A0EB090721463846179ACA
:102AE00000F080FA284400EB090507E044E008E123
:102AF0000DE01BF8010B524617999047B9F10109F7
:102B0000F7D2534621463846179AF2E039E00A21B7
:102B1000C4F302524FF0000B0091022A06D058F87D
:102B2000040BC117032A09D00AE023E008F10700CB
:102B300020F00702F2E80201904605E000B2C1175A
:102B4000042A01D140B2C117002906DA0A46002141
:102B5000404261EB02012D2202E0220504D52B2226
:102B60008DF80420012203E0E20701D02022F7E7DC
:102B7000914657E00A2100E010214FF0000B009130
:102B80000BE010214FF0000B44F0040408270091E3
:102B900003E008204FF0000B0090C4F30252022A19
:102BA00005D058F8040B0021032A08D008E008F1EA
:102BB000070020F00702F2E80201904603E080B22D
:102BC000042A00D1C0B24FF0000922072AD532787A
:102BD000702A07D0DDF800C08CF0100C5CEA0B0CFA
:102BE00005D00EE040228DF80420012208E050EAD2
:102BF000010306D030238DF804308DF80520022221
:102C00009146009B83F0080353EA0B030AD150EA74
:102C1000010201D1620705D530228DF804204FF062
:102C200001097F1E3278582A04D039A20C920CAACE
:102C300002920BE03BA2F9E75B46009AFDF7FEFC2F
:102C40000C9B9B5C029A521E0292137050EA010286
:102C5000F2D1029804A9081A00F1200B600702D5EE
:102C600024F4803400E001275F4502DDA7EB0B0070
:102C700000E0002000EB0B01009003984944401A4B
:102C80000390E00306D453462146179A039800F0B8
:102C9000A9F90544002706E001A85246C05D17992E
:102CA00090476D1C7F1C4F45F6DBE0030CD5534667
:102CB0002146179A039800F095F9054404E0302066
:102CC0005246179990476D1C0099481E00900029A4
:102CD000F5DC08E00298029952460078491C0291FE
:102CE000179990476D1CBBF10001ABF1010BF1DCB2
:102CF0005BE100F065F90544761C307800287FF42C
:102D00000DAE19B02846BDE8F08F0000092801007B
:102D10003031323334353637383961626364656651
:102D20000000000030313233343536373839414213
:102D30004344454600000000600700D4062708F120
:102D4000070020F00700F0E80223804603F0004C63
:102D50005FEA0C0001D097A009E0200501D596A0FC
:102D600005E0E00701D095A001E0AFF24C00139020
:102D7000307823F0004365280CD006DC452809D0C4
:102D800046281DD047287FD13BE0662818D0672809
:102D90007AD136E00021112F01DB112000E0781CF0
:102DA000CDE9000104A90CA8FFF7EEFCDDE90D0157
:102DB0000C9A4FF0000B07F10109109200914EE0C0
:102DC0004FF000400097CDE9011004A90CA8FFF7CF
:102DD000DBFCDDE90D020C9B0F994FF0000B9146D7
:102DE0001093009211B9791C00EB0109B7EB0900AF
:102DF00003D4C0F1FF3B07F10109A9EB07000190E3
:102E000042E0012F00DA01270021112F01DD1120FE
:102E100000E03846CDE9000104A90CA8FFF7B4FC96
:102E2000DDE90D010C9A00914FF0000BB9461092AC
:102E300021070FD4009A4A4503DA914601E0A9F12F
:102E40000109B9F1010F05DD109AA9F10101515CE9
:102E50003029F4D0B84202DA10F1040F03DA01216C
:102E6000CDE9011010E0002803DC8344A9EB000148
:102E700002E0411C494500DD8946A0EB0B00401CE7
:102E800001904FF000400290200705D4019848457A
:102E900002DB4FF0FF30019000208DF84B000298CC
:102EA0000DF14B07B0F1004F25D002200C902B20E4
:102EB0000D90029800280CDA404202902D200D90CF
:102EC00007E00A210298FDF7A3FB3031029007F8D2
:102ED000011D0C99481E0C900029F2DC0298002874
:102EE000EFD1791E0D980870307800F0200040F086
:102EF000450007F8020D11A8C01BC01D02901398D1
:102F0000007800B1012000EB0901019801EBE071AC
:102F1000029801440398401A401E0390E00306D42F
:102F200053462146179A039800F05CF8054413981D
:102F3000007818B15246179990476D1CE00323D5CD
:102F400053462146179A039800F04CF805441BE0BD
:102F5000BBF1000F07DB0098584504DD1098179966
:102F600010F80B0001E01799302052469047019865
:102F70000BF1010B401E05F10105019004D12E203B
:102F80005246179990476D1CB9F10001A9F101094A
:102F9000DEDC05E017F8010B5246179990476D1CCF
:102FA0000299481E02900029F4DC53462146179AE4
:102FB00003989EE62D0000002B000000200000007A
:102FC0002DE9F041044600251E461746880404D426
:102FD00005E039462020B0476D1C641EF9D528460F
:102FE000BDE8F0812DE9F041044600251E469046DB
:102FF000C80301D5302700E02027880404D505E068
:1030000041463846B0476D1C641EF9D52846BDE8D8
:10301000F0810A68531C0B601070704770B504464D
:1030200022E02568A08900F4807020B9A06810B162
:10303000A068FFF7F3FFA08900F4807028B9206929
:1030400018B10B49206909688847A08900F400700D
:1030500028B9206A18B10649206A096888472046BD
:103060000349096888472C46002CDAD170BD00005E
:103070008C01002001480068704700008401002096
:1030800010B5282005490968884704461CB1282145
:103090002046FDF784F8204610BD0000880100207E
:1030A00010B5044600221146204600F001F810BD7C
:1030B0002DE9F04780460D4616460024FFF7E0FF55
:1030C00007460020124908600FB9BDE8F087404666
:1030D00001F028FC81464946384600F0D9FE0446F6
:1030E00024B93846FFF79AFF0020EEE766B1204684
:1030F00001F018FC0446207830B13846FFF78EFF07
:10310000034804600020E0E705B12C603846DCE7A6
:10311000840100201FB502A903A8FDF712FF9DF846
:103120000C000A2190FBF1F03030C0B28DF80400A1
:103130009DF80C0090FBF1F201FB12003030C0B2A0
:103140008DF8050000208DF806009DF8080090FB22
:10315000F1F03030C0B28DF800009DF8080090FB0F
:10316000F1F201FB12003030C0B28DF801000020F6
:103170008DF802009DF808209DF80C100EA0FFF7B6
:103180003FFA01AA16A11948FDF7F8FF18B118A0D7
:10319000FFF736FA02E020A0FFF732FA6A4627A1CD
:1031A0002948FDF7EBFF18B128A0FFF729FA02E044
:1031B0002FA0FFF725FA1FBD74656D7065726174ED
:1031C0007572653D2564A1E343202068756D6964CF
:1031D0006974793D2564252552480D0A00000000D8
:1031E00074656D70657261747572650064000020AD
:1031F0005075626C69736865642074656D70657282
:103200006174757265207375636365737366756C3D
:103210006C79210D0A0000004661696C65642074B8
:103220006F207075626C6973682074656D7065726B
:103230006174757265210D0A0000000068756D6982
:103240006469747900000000C80000205075626C49
:1032500069736865642068756D6964697479207341
:1032600075636365737366756C6C79210D0A000074
:103270004661696C656420746F207075626C697357
:10328000682068756D6964697479210D0A00000011
:1032900070B504464FF4077094FBF0F0C6B24FF4DB
:1032A000077094FBF0F100FB114085B205E04FF48C
:1032B000077000F009F8701EC6B2002EF7D115B1E4
:1032C000284600F001F870BD0146114A12884A43B1
:1032D0004FF0E0235A6100229A611A46126942F0C7
:1032E00001021A6100BF4FF0E022106900F00102F4
:1032F0001AB100F48032002AF5D04FF0E0221269B2
:1033000022F001024FF0E0231A6100229A61704717
:103310007E0100200146114A12784A434FF0E02313
:103320005A6100229A611A46126942F001021A613A
:1033300000BF4FF0E022106900F001021AB100F462
:103340008032002AF5D04FF0E022126922F001020B
:103350004FF0E0231A6100229A6170477C0100203F
:1033600070B504460D46E1B20548FFF7C0F800BF4E
:1033700080210348FEF7EDFF0028F9D0204670BDFC
:103380000038014010B5002821D0114B0022001F49
:10339000196803E0814203D80A4649680029F9D137
:1033A00052B11368841A9C4204D10068184410601A
:1033B000104602E0506000E0186039B102680B1A54
:1033C000934203D10B681A4402604968416010BD02
:1033D00094010020F0B503460D4616460027294605
:1033E0000A2E03D0002008702846F0BD33B93020E3
:1033F00001F8010B002008702846F6E7002B03DADD
:103400002D2001F8010B5B4242F210720DE093FB9C
:10341000F2F404B937B104F1300001F8010B04FBF8
:10342000123301270A2092FBF0F2002AEFDC002081
:1034300008702846D9E700004820FEF745FC4FF405
:10344000A060FEF7C9FA4FF4E130FEF745FEFEF743
:10345000BBF9FFF753F83CA0FFF7D2F83EA0FFF707
:10346000CFF848A0FFF7CCF850A0FFF7C9F857A055
:10347000FFF7C6F8FDF708FF5EA15F48FEF722F8E8
:1034800018B15EA0FFF7BCF802E067A0FFF7B8F83C
:103490006FA270A17048FDF771FE18B16FA0FFF721
:1034A000AFF802E078A0FFF7ABF806E07FA0FFF7E7
:1034B000A7F84FF4FA70FFF7EBFEFDF7EDFC0028DC
:1034C000F4D180A0FFF79CF847214FF4FA70FEF783
:1034D00049FC00218048FEF70CFD33E07F48B0F83E
:1034E0000004C00B10B372B67C48B0F80004C0F3FF
:1034F0000E04224679497A48FCF738FE00207849C4
:1035000008557648B0F8000420F400407349A1F84B
:1035100000040846B0F800046FF30E00A1F80004A0
:1035200062B621466E48FEF763FA00BF6D48007828
:1035300020B16DA0FFF764F8FFF7ECFD4FF4FA60DF
:10354000FFF7A6FECAE7000048656C6C6F2C207779
:103550006F726C64210D0A000D0A3D3D3D3D3D3DFD
:103560003D3D3D3D3D3D3D3D3D3D3D3D3D3D3D3D8B
:103570003D3D3D3D3D3D3D3D3D3D3D3D3D3D0D0ADE
:103580000000000053544D3332202B204553503857
:10359000323636204A534F4E20436F6D6D616E6454
:1035A0002048616E646C65720D0A0000537570707E
:1035B0006F7274656420646576696365733A204C44
:1035C00065642C204D6F746F720D0A003D3D3D3DCA
:1035D0003D3D3D3D3D3D3D3D3D3D3D3D3D3D3D3D1B
:1035E0003D3D3D3D3D3D3D3D3D3D3D3D3D3D3D3D0B
:1035F0000D0A0000300000002C0100200D0A537558
:10360000627363726962656420746F204D51545413
:1036100020746F7069632073756363657373667577
:103620006C6C79210D0A00000D0A4661696C6564B5
:1036300020746F2073756273637269626520746FA2
:10364000204D51545420746F706963210D0A00009D
:103650003031000061610000000000200D0A50754B
:10366000626C6973686564204D515454206D6573B4
:1036700073616765207375636365737366756C6CDE
:1036800079210D0A000000000D0A4661696C65642D
:1036900020746F207075626C697368204D515454AA
:1036A000206D657373616765210D0A0044485431CC
:1036B0003120436865636B204572726F72210D0A79
:1036C00000000000444854313120436865636B209A
:1036D0004F4B210D0A000000000400406806002046
:1036E000A0010020400100200D0A52656164696E4E
:1036F0006720444854313120646174612E2E2E0DB0
:103700000A000000F0B50B30154D20F00701002431
:10371000144A0FE003688B420BD38B4205D95E1A23
:1037200043184768C3E9006700E04368136002C0BC
:1037300004E0021D10680028ECD12046002802D1C8
:10374000286808B10020F0BD064A07481060074A03
:10375000121A22F00702C0E9002401202860D7E7EE
:103760009801002094010020740A0020700C0020B1
:103770002DE9F04705460C4620785B2804D0264802
:1037800004600020BDE8F0870520E860601C01F0BF
:10379000C9F8044620785D2801D1601CF2E7FFF7E4
:1037A0006FFC0646A860A86808B90020EAE7204632
:1037B00001F0B8F880464146304600F069FB074604
:1037C00001F0B0F804460CB90020DBE717E0FFF782
:1037D00057FC071E00D1D5E737607E603E46601C6F
:1037E00001F0A0F881464946304600F051FB804682
:1037F00001F098F804460CB90020C3E700BF207818
:103800002C28E4D020785D2801D1601CBAE702485A
:1038100004600020B6E70000840100200146002279
:103820000878302806DB0878392803DC0878303837
:10383000024415E00878412806DB0878462803DCB6
:103840000878373802440BE00878612806DB0878EE
:10385000662803DC08785738024401E000207047EE
:103860001201491C0878302806DB0878392803DC67
:1038700008783038024415E00878412806DB0878DB
:10388000462803DC0878373802440BE008786128C2
:1038900006DB0878662803DC08785738024401E024
:1038A0000020DCE71201491C0878302806DB087884
:1038B000392803DC08783038024415E008784128BC
:1038C00006DB0878462803DC0878373802440BE02A
:1038D0000878612806DB0878662803DC0878573802
:1038E000024401E00020BAE71201491C08783028A0
:1038F00006DB0878392803DC08783038024415E004
:103900000878412806DB0878462803DC0878373831
:1039100002440BE00878612806DB0878662803DC9F
:1039200008785738024401E0002098E7104696E7EF
:103930002DE9F047074627B91BA0FEF761FEBDE859
:10394000F0873846FFF7ACFB06463EB9FFF792FB1F
:10395000054629461BA0FEF753FEF0E7B4681BE0BE
:10396000D4F82080D4F810901B4D09E04046296817
:10397000FCF743FC18B94846A968884703E00C35B2
:1039800028680028F2D100BF286818B9414613A062
:10399000FEF736FE246800BF002CE1D13046FFF769
:1039A0003DFB00BFCBE70000B4EDCEF33AB4ABC8AB
:1039B000EBB5C44A534F4ED7D6B7FBB4AECEAABF71
:1039C000D50A00004A534F4EB8F1CABDB4EDCEF34C
:1039D0003A25730A0000000044010020556E6B6E0A
:1039E0006F776E206465766963653A2025730D0AEA
:1039F000000000002DE9F04F8BB083468A4600207E
:103A0000044605460026674F0021884689460990EE
:103A1000012008909AF800002D2802D1624F0AF187
:103A2000010A9AF80000302801D10AF1010A9AF837
:103A30000000312822DB9AF8000039281EDC00BF84
:103A40001AF8011BA1F13000FCF799FD0022574B39
:103A5000CDE9060120462946FCF71FFDCDE904010A
:103A6000DDE90623FCF772FC04460D469AF80000D7
:103A7000302803DB9AF800003928E1DD9AF80000CD
:103A80002E2830D19AF8010030282CDB9AF801005A
:103A9000392828DC0AF1010A00BF1AF8011BA1F13C
:103AA0003000FCF76CFD0022404BCDE906012046BA
:103AB0002946FCF7F2FCCDE90401DDE90623FCF719
:103AC00045FC04460D460022364B40464946FCF76D
:103AD000DEFC804689469AF80000302803DB9AF81D
:103AE00000003928D9DD9AF80000652803D09AF83B
:103AF0000000452823D10AF1010A9AF800002B287A
:103B000002D10AF1010A08E09AF800002D2804D138
:103B10004FF0FF3008900AF1010A08E01AF8010B93
:103B20003038099901EB810100EB410009909AF8C6
:103B30000000302803DB9AF800003928EEDDDDE9CB
:103B4000082101FB02F0FCF71AFD42464B46CDE985
:103B50000001FCF7FBFB02460B46CDE90201002009
:103B6000124900F0F3F922462B46CDE90601304612
:103B70003946FCF792FCCDE90401DDE90623FCF7A8
:103B80008CFC04460D46CBE9064520462946FCF749
:103B900007FDCBF814000320CBF80C0050460BB007
:103BA000BDE8F08F0000F03F0000F0BF00002440AF
:103BB0002DE9F04706460C4620787B2804D0404883
:103BC00004600020BDE8F0870620F060601C00F073
:103BD000A9FE044620787D2801D1601CF2E7FFF79A
:103BE0004FFA0546B060B06808B90020EAE7204601
:103BF00000F098FE80464146284600F063F80746EC
:103C000000F090FE04460CB90020DBE7286928622A
:103C10000020286120783A2803D029480460002039
:103C2000D0E7601C00F07EFE80464146284600F04A
:103C30002FF9074600F076FE04460CB90020C1E7D4
:103C400031E0FFF71DFA071E00D1BBE72F607D6052
:103C50003D46601C00F066FE81464946284600F05D
:103C600031F8804600F05EFE04460CB90020A9E75A
:103C7000286928620020286120783A2803D010485B
:103C8000046000209EE7601C00F04CFE814649461F
:103C9000284600F0FDF8804600F044FE04460CB9CA
:103CA00000208FE700BF20782C28CAD020787D28FC
:103CB00001D1601C86E702480460002082E7000012
:103CC000840100202DE9F05F8346884608F1010455
:103CD000002798F80000222805D06A48C0F8008024
:103CE0000020BDE8F09F04E014F8011B5C2900D11E
:103CF000641C2078222804D0207810B1781C071E7C
:103D0000F2D1781C6049096888478146B9F1000FF3
:103D100001D10020E5E708F101044D469EE020783E
:103D20005C2804D014F8010B05F8010B96E0641C24
:103D30002078722818D006DC622809D066280BD0BB
:103D40006E287DD10CE0742812D07528F9D113E0CB
:103D5000082005F8010B7FE00C2005F8010B7BE043
:103D60000A2005F8010B77E00D2005F8010B73E040
:103D7000092005F8010B6FE0601CFFF74FFD0646B8
:103D8000241DB6F55C4F02D3B6F5604F00D306B9DB
:103D900062E0B6F5584F1CD3B6F55C4F19D2607887
:103DA0005C2802D1A078752800D055E0E01CFFF710
:103DB00035FD8246A41DBAF55C4F02D3BAF5604FBB
:103DC00000D349E0C6F30901504661F39F2000F596
:103DD00080360427802E01D2012708E0B6F5006F57
:103DE00001D2022703E0B6F5803F00D203273D440D
:103DF000012F20D0022F15D0032F0AD0042F24D159
:103E000006F0BF0040F08001681E05460170B6094B
:103E100000BF06F0BF0040F08001681E054601703B
:103E2000B60900BF06F0BF0040F08001681E0546DD
:103E30000170B60900BF1548C05D3043C1B200E053
:103E400006E0681E0546017000BF00BF3D4403E068
:103E5000207805F8010B00BF00BF641C20782228E1
:103E600003D0207800287FF45AAF002028702078F3
:103E7000222800D1641CCBF810900420CBF80C0051
:103E800020462EE784010020880100208249000896
:103E900070B505460C460CB9002070BD042224A163
:103EA0002046FCF7B8F918B90220E860201DF4E7B5
:103EB000052221A12046FCF7AEF918B90020E860E0
:103EC000601DEAE704221EA12046FCF7A4F920B9F0
:103ED0000120E8606861201DDFE72078222804D1F6
:103EE00021462846FFF7EEFED7E720782D2805D09B
:103EF0002078302807DB2078392804DC2146284642
:103F0000FFF778FDC9E720785B2804D121462846D1
:103F1000FFF72EFCC1E720787B2804D121462846F4
:103F2000FFF746FEB9E7084804600020B5E7000047
:103F30006E756C6C0000000066616C7365000000BB
:103F40007472756500000000840100202DE9F04DB9
:103F50001D460C4698B0174621F0004123F000435F
:103F6000002814BF4FF0010C4FF0000C0CEB440C78
:103F7000FE4A0CEB02064FEA620C66452BD33E006C
:103F800018BF012606EB45061644F94A964222D38D
:103F9000F84A53EA070C02D0944205D148B918B048
:103FA00000201146BDE8F08D002808BF4FF0000C3E
:103FB00001D04FF0010C0CEB440212F5001F0AD89F
:103FC000002F14BF4FF0010C4FF0000C0CEB45021A
:103FD00012F5001F07D918B03A462B462146BDE816
:103FE000F04DFEF7A3BB0022DFF88CA3002CB8BF76
:103FF000534526DADFF884C36345A8BF022220DADE
:10400000DFF870C39C451CDCDFF874C30CEB235C49
:10401000BCF1140F08DDCCF1340627FA06FC0CFACB
:1040200006F6BE420DD108E05FB9CCF1140623FAC2
:1040300006FC0CFA06F69E4203D10CF00102C2F116
:10404000020251EA000C19D1002D17DA002C18BF1A
:10405000022A01D0012A07D00220FEF78FFB18B0F8
:10406000BDE8F04DFEF75ABB0220FEF787FBFEF7D6
:1040700055FB18B081F00041BDE8F08DB7F1000CA0
:104080006CD1534525D104F1804212F5801201BF55
:1040900000280020B74918B008BFBDE8F08DB5482A
:1040A000884207DC002DA1BF6046294618B0BDE854
:1040B000F08D07E0281E05DA80F0004118B0604658
:1040C000BDE8F08DAF497944D1E9000118B0BDE8F1
:1040D000F08DDFF8A0C2634525D1002D1FDA19B19C
:1040E000514512D1D8B909E0002840F0EC82A24A2B
:1040F000214618B062F31E01BDE8F08D0020214674
:1041000018B060F31E01BDE8F08D08DA18B0234640
:10411000BDE8F04D024600206146FCF782BB18B0B6
:104120002146BDE8F08D514518DAB5F1804F0DD02C
:10413000A5F1005CBCF1FF5C10D1B4F1000C0DDB0B
:1041400018B06146BDE8F04D00F0F5BB234618B04D
:104150000246BDE8F04D1946FCF79FB9060024F071
:10416000004C3BD1D9B1514533D1002C06DD002D97
:10417000A1BF0020514618B0BDE8F08D002C01DD34
:10418000002D1BDB002C13DA002D11DB012A4FF070
:10419000000014BF78497C4918B0BDE8F08D022AB0
:1041A00018BF002C0AD0012A08D1002C06DA0AE038
:1041B000002CB8BF002D11DA012A04D0002018B05D
:1041C0000146BDE8F08D18B000204FF00041BDE879
:1041D000F08DA1F14050B0F17F601AD0012000EBCA
:1041E000E47050EA020421D0624C521E4FF0000BE2
:1041F000104304BF4FF0000B644C654883427CDDE4
:10420000644A654893421FDD884217DB002D25DB99
:1042100037E0002C00DA4AB1022A0CBF01204FF02F
:10422000FF3018B0BDE8F04DFCF7A9B90120FEF74A
:10423000A5FA18B0BDE8F04DFEF77ABA4D4A8A42A9
:1042400002DC002D0ADC1CE0814202DA002D18DAC3
:1042500004E0484B994220DD002D12DD0220FEF7DC
:104260008DFAFEF76BFA05460E4600225346584675
:104270002146FCF712F918B066F31E012846BDE886
:10428000F08D0220FEF77AFAFEF760FA0A46214620
:1042900018B062F31E01BDE8F08D00223046614681
:1042A000FCF7F5F880460E466FF00102FCF728FB9C
:1042B0004FF05532394BFCF7EDF842463346FCF7E8
:1042C000ECF80022364BFCF7E5F8824642463346CE
:1042D000049110461946FCF7E0F85246049BFCF79F
:1042E000DCF88A4600904FF0C0422E4B40463146E3
:1042F000FCF7D3F82C4A2B4B00E027E0CDE9060170
:1043000051460098FCF7C9F882460191274A284B8C
:1043100040463146FCF7C1F85246019BFCF7B7F81E
:1043200082460B4602460591DDE90601FCF70EF8D0
:10433000DDE90623002688463046FCF7A8F85246F9
:10434000059BFCF7A7F8024600F07EB90020B1F506
:10435000801F07DA352230466146FCF7D1FA06465F
:104360006FF0340000EB215024E00000FFFF1F003D
:10437000FFFF0F000000F03F0000F07F000040430F
:1043800001FCFFFF4E0900000000F0FF0000F0BF3D
:104390000000E0410000F043FFFFEF3F5555D53FDF
:1043A0000000E03F4715F73FFE822B6544DF5DF8D4
:1043B0000BAE543EA0F2FF300190C1F3130040F069
:1043C0007F6141F040510291FE498842D8BF0020F0
:1043D00004DDFD498142C8BF012001DD0D9008E0E8
:1043E00000200D900198401C01900298A0F58010CB
:1043F00002900299F54878440B910D9900EBC100A9
:10440000D0E900230F9330460A920B99FCF73FF84E
:10441000CDE90601DDE90A2130460F9BFBF796FF47
:1044200002460B460020EA49FCF7FBF905910246DB
:104430000B460090DDE90601FCF72FF81490E548E3
:104440008A464FF0000878440299006812904FF0B5
:10445000005040EA61010D980F9B01EB804000F590
:10446000002109910A9A1298FCF711F832460B9B29
:10447000FCF710F842465346FCF70FF80646029147
:1044800040465146099B129AFCF707F8DDE90623DE
:10449000FCF700F83246029BFBF7F9FF059B009AF8
:1044A000FBF7FBFF0091149A0490534610461946FF
:1044B000FBF7F3FF06460246C7480B46029106216A
:1044C0007844FEF7D5F8CDE90510029B3246104638
:1044D0001946FBF7E2FFDDE90532FBF7DEFF059148
:1044E0000646534640461946149AFBF72FFF009B99
:1044F000049AFBF7D2FF3246059BFBF727FFCDE975
:1045000005104246534610461946FBF7C6FF0022E7
:10451000B24B02910A90FBF719FFDDE90532FBF778
:1045200015FF0E464246AD4B4046FBF7B0FF029BDF
:104530000A9AFBF7ACFFDDE90532FBF7ABFF424619
:1045400002910A90334610465146FBF7A6FFCDE98B
:1045500006015346149A02990A98FBF79EFF8A4671
:1045600002903346424600990498FBF796FF534663
:10457000029AFBF7EBFE82460B4602460591DDE907
:104580000601FBF7E3FEDDE9062300208846064628
:10459000FBF77DFF5246059BFBF77CFF82460991A6
:1045A0004FF060428E4B30464146FBF776FF049059
:1045B00006918C4A8A4B50460999FBF76EFF82465A
:1045C0000291894A894B30464146FBF766FF5246C5
:1045D000029BFBF7BBFE864B7B440D9A03EBC203A9
:1045E000D3E90023FBF7B2FE0E9007910198FBF789
:1045F000C6FF0591DDE9061382460E9A0498FBF783
:10460000A5FE7C4A7A440D9B02EBC303D3E9002349
:1046100000930292FBF79AFE5246059BFBF796FE2B
:104620000026884652463046059BFBF730FF009B2C
:10463000029AFBF72CFF069B049AFBF728FF079BC7
:104640000E9AFBF727FF024600200B4602903846E1
:104650002946FBF722FF824601912B463846194630
:10466000029AFBF714FF32464346FBF716FF524609
:10467000019BFBF76BFE07468A46324643462946B6
:104680000298FBF70AFF05460E463A465346FBF7EB
:104690005DFE594A8846914221DBA8EB020353EAAA
:1046A000000210D12A463346FBF7F1FECDE90401A2
:1046B000524A534B38465146FBF748FEDDE9042386
:1046C000FBF78EFF21D20220FEF758F8FEF736F8EE
:1046D0000A46214618B062F31E01BDE8F08D494B31
:1046E00028F000429A4210D3474A08EB020353EAEB
:1046F00000027FF4C6AD2A463346FBF7C8FE3A46B1
:104700005346FBF76DFF7FF6BCAD0022019228F007
:1047100000403E493E4A01EB2051824223DA481CC8
:104720004FF4801121FA00F040443A4AC0F30A5194
:104730007A44394BA1F2FF31CB4020EA0303C0F3A6
:10474000130040F48010C1F11401C84012680190B8
:10475000B8F1000FBCBF4042019028463146FBF73C
:1047600096FE05460E462A46334638465146FBF726
:10477000EDFD4FF000084246284B40460591FBF7FF
:104780008CFECDE90601264A264B40460599FBF7EB
:1047900084FE009102902A46334640460599FBF775
:1047A00076FE3A465346FBF775FE1F4A1F4BFBF752
:1047B00074FE009B029AFBF7C9FD07468846024635
:1047C0000B4635E08E9803007AB60B009605000084
:1047D0000000F03FCE050000FC040000000008408F
:1047E00009C7EE3FFD033ADCF5015B14E02F3EBE46
:1047F000D40300009803000000009040FE822B6567
:104800004715973C00CC904000346F3F01FCFFFF00
:104810000000E03FE4020000FFFF0F00432EE63FF0
:10482000396CA80C615C20BEEF39FAFE422EE63FDF
:10483000DDE90601FBF78AFDDDE9062305460E46A4
:10484000FBF725FE3A464346FBF724FE0F462A4671
:104850003346009010461946FBF71FFE824602467B
:104860002E4888460B4605217844FDF701FF524645
:104870004346FBF712FE2A463346FBF70BFE804603
:104880008A463B4628463146009AFBF706FE3B46E1
:10489000009AFBF75BFD0691009000224FF08043E9
:1048A00040465146FBF7F3FD0F460C9042465346F7
:1048B00028463146FBF7F1FD3B460C9AFBF7B1FF6A
:1048C000069B009AFBF7E3FD2A463346FBF7DFFD24
:1048D0000022134BFBF7DEFD054601980E4601EB67
:1048E00000510815002810DC28463146019AFCF7D3
:1048F00007F8FDF7A9FE042808BFFDF727FF2846A3
:104900003146019AFBF7FCFF05460B4618B02A46D4
:1049100058462146BDE8F04DFBF7BFBD84010000BD
:104920000000F03F00E0401C20B1017811B1017897
:104930002029F8DD70472DE9F04106460F46FCF7C7
:10494000BFF9041E0D4618BF0120284320F0004087
:10495000C0F17F6000F1E040C00F0ED0301C18BFE6
:104960000120384320F00040C0F17F6000F1E040BA
:10497000C00F04BF0120FDF701FF20462946BDE816
:10498000F0810000C0E0F0F8FC0000000000000032
:10499000000000000000F03F000000000000F83FB1
:1049A00000000000000000000000004003B8E23FEB
:1049B000000000000000000006D0CF43EBFD4C3E9D
:1049C000033333333333E33FFFAB6FDBB66DDB3F92
:1049D0004D268F515555D53F01411DA96074D13FDA
:1049E00065DBC9934A86CD3FEF4E454A287ECA3FD4
:1049F0003E5555555555C53F93BDBE166CC166BF56
:104A00002CDE25AF6A56113FF16BD2C541BDBBBE4E
:104A1000D0A4BE726937663E0000000000000000AE
:104A2000DDDDDDDDDCBBBBDDDDDDDDDDDDDDDDDDFB
:104A3000988888888888888877777777778888883B
:104A400085555556666666666666666666688888D3
:104A50008333333222222222222222222228888DCC
:104A60004C6564004D6F746F720000008C4A000842
:104A700000000020A00100008C0D0008004B000881
:104A8000A0010020D00E00006C270008381D6D71B9
:104A900074745F73746D33325F64656D6F2F74650A
:104AA000737455736572343030320D0143091D64DF
:104AB00008093B6D705F7265706F726B091B640D46
:104AC0004168756D6964C009746F7069633130380D
:104AD000320113604A4208134D181B08640C291454
:104AE0001AD50C41AA022C2C02030404380806072C
:104AF000080902040620811305374C08853334C1A8
:0400000508000131BD
:00000001FF
